{
  "contractName": "TopCoderChallenges",
  "abi": [
    {
      "constant": true,
      "inputs": [
        {
          "name": "challengeId",
          "type": "uint256"
        }
      ],
      "name": "getChallenge",
      "outputs": [
        {
          "name": "title",
          "type": "string"
        },
        {
          "name": "id",
          "type": "uint256"
        },
        {
          "name": "deadline",
          "type": "uint256"
        },
        {
          "name": "submissionCount",
          "type": "uint256"
        }
      ],
      "payable": false,
      "stateMutability": "view",
      "type": "function"
    },
    {
      "constant": false,
      "inputs": [
        {
          "name": "challengeId",
          "type": "uint256"
        },
        {
          "name": "data",
          "type": "string"
        }
      ],
      "name": "addSubmission",
      "outputs": [],
      "payable": false,
      "stateMutability": "nonpayable",
      "type": "function"
    },
    {
      "constant": false,
      "inputs": [
        {
          "name": "title",
          "type": "string"
        },
        {
          "name": "id",
          "type": "uint256"
        },
        {
          "name": "deadline",
          "type": "uint256"
        },
        {
          "name": "publicKey",
          "type": "string"
        }
      ],
      "name": "addChallenge",
      "outputs": [
        {
          "name": "",
          "type": "address"
        }
      ],
      "payable": false,
      "stateMutability": "nonpayable",
      "type": "function"
    },
    {
      "constant": true,
      "inputs": [
        {
          "name": "",
          "type": "uint256"
        }
      ],
      "name": "owner",
      "outputs": [
        {
          "name": "",
          "type": "address"
        },
        {
          "name": "id",
          "type": "uint256"
        },
        {
          "name": "deadline",
          "type": "uint256"
        },
        {
          "name": "submissionCount",
          "type": "uint256"
        }
      ],
      "payable": false,
      "stateMutability": "view",
      "type": "function"
    },
    {
      "constant": true,
      "inputs": [
        {
          "name": "",
          "type": "uint256"
        },
        {
          "name": "id",
          "type": "uint256"
        },
        {
          "name": "deadline",
          "type": "uint256"
        }
      ],
      "name": "challenges",
      "outputs": [
        {
          "name": "title",
          "type": "string"
        },
        {
          "name": "id",
          "type": "uint256"
        },
        {
          "name": "deadline",
          "type": "uint256"
        },
        {
          "name": "submissionCount",
          "type": "uint256"
        },
        {
          "name": "publicKey",
          "type": "string"
        }
      ],
      "payable": false,
      "stateMutability": "view",
      "type": "function"
    },
    {
      "inputs": [
        {
          "name": "challengeId",
          "type": "uint256"
        },
        {
          "name": "num",
          "type": "uint256"
        }
      ],
      "payable": false,
      "stateMutability": "view",
      "type": "function",
      "constant": true,
      "name": "getSubmission",
      "outputs": [
        {
          "name": "sender",
          "type": "address"
        },
        {
          "name": "data",
          "type": "string"
        },
        {
          "name": "timestamp",
          "type": "uint256"
        }
      ]
    },
    {
      "inputs": [],
      "payable": false,
      "stateMutability": "nonpayable",
      "type": "constructor"
    }
  ],
  "bytecode": "0x6060604052341561000f57600080fd5b336000806101000a81548173ffffffffffffffffffffffffffffffffffffffff021916908373ffffffffffffffffffffffffffffffffffffffff160217905550610b4e8061005e6000396000f300606060405260043610610078576000357c0100000000000000000000000000000000000000000000000000000000900463ffffffff1680631bdd4b741461007d5780632594f3fe1461012e5780638a25bca4146101945780638da5cb5b146102465780638f1d37761461029b578063b7ed7071146103f2575b600080fd5b341561008857600080fd5b61009e60048080359060200190919050506104d1565b6040518080602001858152602001848152602001838152602001828103825286818151815260200191508051906020019080838360005b838110156100f05780820151818401526020810190506100d5565b50505050905090810190601f16801561011d5780820380516001836020036101000a031916815260200191505b509550505050505060405180910390f35b341561013957600080fd5b610192600480803590602001909190803590602001908201803590602001908080601f016020809104026020016040519081016040528093929190818152602001838380828437820191505050505050919050506105c6565b005b341561019f57600080fd5b610244600480803590602001908201803590602001908080601f0160208091040260200160405190810160405280939291908181526020018383808284378201915050505050509190803590602001909190803590602001909190803590602001908201803590602001908080601f016020809104026020016040519081016040528093929190818152602001838380828437820191505050505050919050506106d6565b005b341561025157600080fd5b610259610768565b604051808273ffffffffffffffffffffffffffffffffffffffff1673ffffffffffffffffffffffffffffffffffffffff16815260200191505060405180910390f35b34156102a657600080fd5b6102bc600480803590602001909190505061078d565b60405180806020018681526020018581526020018481526020018060200183810383528881815460018160011615610100020316600290048152602001915080546001816001161561010002031660029004801561035b5780601f106103305761010080835404028352916020019161035b565b820191906000526020600020905b81548152906001019060200180831161033e57829003601f168201915b50508381038252848181546001816001161561010002031660029004815260200191508054600181600116156101000203166002900480156103de5780601f106103b3576101008083540402835291602001916103de565b820191906000526020600020905b8154815290600101906020018083116103c157829003601f168201915b505097505050505050505060405180910390f35b34156103fd57600080fd5b61041c60048080359060200190919080359060200190919050506107c1565b604051808473ffffffffffffffffffffffffffffffffffffffff1673ffffffffffffffffffffffffffffffffffffffff16815260200180602001838152602001828103825284818151815260200191508051906020019080838360005b83811015610494578082015181840152602081019050610479565b50505050905090810190601f1680156104c15780820380516001836020036101000a031916815260200191505b5094505050505060405180910390f35b6104d9610911565b6000806000806001600087815260200190815260200160002090506000816001015411151561050757600080fd5b806000018054600181600116156101000203166002900480601f01602080910402602001604051908101604052809291908181526020018280546001816001161561010002031660029004801561059f5780601f106105745761010080835404028352916020019161059f565b820191906000526020600020905b81548152906001019060200180831161058257829003601f168201915b50505050509450806001015493508060020154925080600501805490509150509193509193565b6000600160008481526020019081526020016000209050600081600101541115156105f057600080fd5b4281600201541015151561060357600080fd5b8060050180548060010182816106199190610925565b916000526020600020906003020160006060604051908101604052803373ffffffffffffffffffffffffffffffffffffffff16815260200186815260200142815250909190915060008201518160000160006101000a81548173ffffffffffffffffffffffffffffffffffffffff021916908373ffffffffffffffffffffffffffffffffffffffff16021790555060208201518160010190805190602001906106c3929190610957565b5060408201518160020155505050505050565b836001600085815260200190815260200160002060000190805190602001906107009291906109d7565b50826001600085815260200190815260200160002060010181905550816001600085815260200190815260200160002060020181905550806001600085815260200190815260200160002060040190805190602001906107619291906109d7565b5050505050565b6000809054906101000a900473ffffffffffffffffffffffffffffffffffffffff1681565b6001602052806000526040600020600091509050806000019080600101549080600201549080600301549080600401905085565b60006107cb610911565b6000806000600160008881526020019081526020016000209150600082600101541115156107f857600080fd5b85826005018054905011801561080f575060008610155b151561081a57600080fd5b816005018681548110151561082b57fe5b906000526020600020906003020190508060000160009054906101000a900473ffffffffffffffffffffffffffffffffffffffff169450806001018054600181600116156101000203166002900480601f0160208091040260200160405190810160405280929190818152602001828054600181600116156101000203166002900480156108fa5780601f106108cf576101008083540402835291602001916108fa565b820191906000526020600020905b8154815290600101906020018083116108dd57829003601f168201915b505050505093508060020154925050509250925092565b602060405190810160405280600081525090565b815481835581811511610952576003028160030283600052602060002091820191016109519190610a57565b5b505050565b828054600181600116156101000203166002900490600052602060002090601f016020900481019282601f1061099857805160ff19168380011785556109c6565b828001600101855582156109c6579182015b828111156109c55782518255916020019190600101906109aa565b5b5090506109d39190610ab5565b5090565b828054600181600116156101000203166002900490600052602060002090601f016020900481019282601f10610a1857805160ff1916838001178555610a46565b82800160010185558215610a46579182015b82811115610a45578251825591602001919060010190610a2a565b5b509050610a539190610ab5565b5090565b610ab291905b80821115610aae57600080820160006101000a81549073ffffffffffffffffffffffffffffffffffffffff0219169055600182016000610a9d9190610ada565b600282016000905550600301610a5d565b5090565b90565b610ad791905b80821115610ad3576000816000905550600101610abb565b5090565b90565b50805460018160011615610100020316600290046000825580601f10610b005750610b1f565b601f016020900490600052602060002090810190610b1e9190610ab5565b5b505600a165627a7a72305820a83f02cd30be7aed7c48ea6b68180063201fa3ec33f55a778d6ebe9302324ba00029",
  "source": "pragma solidity ^0.4.17;\n\n/*\n Usage from `truffle console`\n var tc = TopCoderChallenges.at(TopCoderChallenges.address)\n tc.addChallenge(\"Expired challenge\", 1, 2)\n tc.addChallenge(\"Some challenge\", 2, 1612504683, 'MIGJAoGBAM3CosR73CBNcJsLv5E90NsFt6qN1uziQ484gbOoule8leXHFbyIzPQRozgEpSpi\\nwhr6d2/c0CfZHEJ3m5tV0klxfjfM7oqjRMURnH/rmBjcETQ7qzIISZQ/iptJ3p7Gi78X5ZMh\\nLNtDkUFU9WaGdiEb+SnC39wjErmJSfmGb7i1AgMBAAE=');\n \n tc.getChallenge(2)\n tc.addSubmission(2, \"<encrypted json>\")\n tc.getSubmission(2, 0)\n*/\n\ncontract TopCoderChallenges {\n  struct Submission {\n    address sender;\n    string data;\n    uint timestamp;\n  }\n\n  struct Challenge {\n    string title;\n    uint id;\n    uint deadline;\n    uint submissionCount;\n    string publicKey;\n    Submission[] submissions;\n  }\n  \n  address public owner;\n  \n  mapping(uint => Challenge) public challenges;\n  \n  modifier restricted() {\n    if (msg.sender == owner) _;\n  }\n\n  function TopCoderChallenges() public {\n    owner = msg.sender;\n  }\n  \n  // add or update a challenge\n  // owner only\n  function addChallenge(string title, uint id, uint deadline, string publicKey) public {\n    challenges[id].title = title;\n    challenges[id].id = id;\n    challenges[id].deadline = deadline;\n    challenges[id].publicKey = publicKey;\n  }\n\n  // get challenge details by id\n  function getChallenge(uint challengeId) public view returns (\n    string title,\n    uint id,\n    uint deadline,\n    uint submissionCount\n  ) {\n    Challenge storage challenge = challenges[challengeId];\n    require(challenge.id > 0);\n    title = challenge.title;\n    id = challenge.id;\n    deadline = challenge.deadline;\n    submissionCount = challenge.submissions.length;\n  }\n\n  // add a submission and check for deadline\n  function addSubmission(uint challengeId, string data) public {\n    Challenge storage challenge = challenges[challengeId];\n    require(challenge.id > 0);\n    require(challenge.deadline >= now);\n    challenge.submissions.push(Submission(msg.sender, data, now));\n  }\n\n  // get a submission from the challenge\n  function getSubmission(uint challengeId, uint num) public view returns (\n    address sender,\n    string data,\n    uint timestamp\n  ) {\n    Challenge storage challenge = challenges[challengeId];\n    require(challenge.id > 0);\n    require(challenge.submissions.length > num && num >= 0);\n    Submission storage submission = challenge.submissions[num];\n    sender = submission.sender;\n    data = submission.data;\n    timestamp = submission.timestamp;\n  }\n}\n",
  "sourcePath": "/Users/sky/work/uport/uport-app/contracts/TopCoderChallenges.sol",
  "compiler": {
    "name": "solc",
    "version": "0.4.18+commit.9cf6e910.Emscripten.clang"
  },
  "schemaVersion": "1.0.1",
  "updatedAt": "2017-12-07T20:09:35.045Z"
}