{
  "contractName": "TopCoderChallenges",
  "abi": [
    {
      "constant": true,
      "inputs": [
        {
          "name": "challengeId",
          "type": "uint256"
        }
      ],
      "name": "getChallenge",
      "outputs": [
        {
          "name": "title",
          "type": "string"
        },
        {
          "name": "id",
          "type": "uint256"
        },
        {
          "name": "deadline",
          "type": "uint256"
        },
        {
          "name": "publicKey",
          "type": "string"
        },
        {
          "name": "submissionCount",
          "type": "uint256"
        }
      ],
      "payable": false,
      "stateMutability": "view",
      "type": "function"
    },
    {
      "constant": false,
      "inputs": [
        {
          "name": "challengeId",
          "type": "uint256"
        },
        {
          "name": "data",
          "type": "string"
        }
      ],
      "name": "addSubmission",
      "outputs": [],
      "payable": false,
      "stateMutability": "nonpayable",
      "type": "function"
    },
    {
      "constant": false,
      "inputs": [
        {
          "name": "title",
          "type": "string"
        },
        {
          "name": "id",
          "type": "uint256"
        },
        {
          "name": "deadline",
          "type": "uint256"
        },
        {
          "name": "publicKey",
          "type": "string"
        }
      ],
      "name": "addChallenge",
      "outputs": [
        {
          "name": "",
          "type": "address"
        }
      ],
      "payable": false,
      "stateMutability": "nonpayable",
      "type": "function"
    },
    {
      "constant": true,
      "inputs": [
        {
          "name": "",
          "type": "uint256"
        }
      ],
      "name": "owner",
      "outputs": [
        {
          "name": "",
          "type": "address"
        },
        {
          "name": "id",
          "type": "uint256"
        },
        {
          "name": "deadline",
          "type": "uint256"
        },
        {
          "name": "submissionCount",
          "type": "uint256"
        }
      ],
      "payable": false,
      "stateMutability": "view",
      "type": "function"
    },
    {
      "constant": true,
      "inputs": [
        {
          "name": "",
          "type": "uint256"
        },
        {
          "name": "id",
          "type": "uint256"
        },
        {
          "name": "deadline",
          "type": "uint256"
        }
      ],
      "name": "challenges",
      "outputs": [
        {
          "name": "title",
          "type": "string"
        },
        {
          "name": "id",
          "type": "uint256"
        },
        {
          "name": "deadline",
          "type": "uint256"
        },
        {
          "name": "submissionCount",
          "type": "uint256"
        },
        {
          "name": "publicKey",
          "type": "string"
        }
      ],
      "payable": false,
      "stateMutability": "view",
      "type": "function"
    },
    {
      "inputs": [
        {
          "name": "challengeId",
          "type": "uint256"
        },
        {
          "name": "num",
          "type": "uint256"
        }
      ],
      "payable": false,
      "stateMutability": "view",
      "type": "function",
      "constant": true,
      "name": "getSubmission",
      "outputs": [
        {
          "name": "sender",
          "type": "address"
        },
        {
          "name": "data",
          "type": "string"
        },
        {
          "name": "timestamp",
          "type": "uint256"
        }
      ]
    },
    {
      "inputs": [],
      "payable": false,
      "stateMutability": "nonpayable",
      "type": "constructor"
    }
  ],
  "bytecode": "0x6060604052341561000f57600080fd5b336000806101000a81548173ffffffffffffffffffffffffffffffffffffffff021916908373ffffffffffffffffffffffffffffffffffffffff160217905550610c638061005e6000396000f300606060405260043610610078576000357c0100000000000000000000000000000000000000000000000000000000900463ffffffff1680631bdd4b741461007d5780632594f3fe1461019a5780638a25bca4146102005780638da5cb5b146102b25780638f1d377614610307578063b7ed70711461045e575b600080fd5b341561008857600080fd5b61009e600480803590602001909190505061053d565b604051808060200186815260200185815260200180602001848152602001838103835288818151815260200191508051906020019080838360005b838110156100f45780820151818401526020810190506100d9565b50505050905090810190601f1680156101215780820380516001836020036101000a031916815260200191505b50838103825285818151815260200191508051906020019080838360005b8381101561015a57808201518184015260208101905061013f565b50505050905090810190601f1680156101875780820380516001836020036101000a031916815260200191505b5097505050505050505060405180910390f35b34156101a557600080fd5b6101fe600480803590602001909190803590602001908201803590602001908080601f016020809104026020016040519081016040528093929190818152602001838380828437820191505050505050919050506106db565b005b341561020b57600080fd5b6102b0600480803590602001908201803590602001908080601f0160208091040260200160405190810160405280939291908181526020018383808284378201915050505050509190803590602001909190803590602001909190803590602001908201803590602001908080601f016020809104026020016040519081016040528093929190818152602001838380828437820191505050505050919050506107eb565b005b34156102bd57600080fd5b6102c561087d565b604051808273ffffffffffffffffffffffffffffffffffffffff1673ffffffffffffffffffffffffffffffffffffffff16815260200191505060405180910390f35b341561031257600080fd5b61032860048080359060200190919050506108a2565b6040518080602001868152602001858152602001848152602001806020018381038352888181546001816001161561010002031660029004815260200191508054600181600116156101000203166002900480156103c75780601f1061039c576101008083540402835291602001916103c7565b820191906000526020600020905b8154815290600101906020018083116103aa57829003601f168201915b505083810382528481815460018160011615610100020316600290048152602001915080546001816001161561010002031660029004801561044a5780601f1061041f5761010080835404028352916020019161044a565b820191906000526020600020905b81548152906001019060200180831161042d57829003601f168201915b505097505050505050505060405180910390f35b341561046957600080fd5b61048860048080359060200190919080359060200190919050506108d6565b604051808473ffffffffffffffffffffffffffffffffffffffff1673ffffffffffffffffffffffffffffffffffffffff16815260200180602001838152602001828103825284818151815260200191508051906020019080838360005b838110156105005780820151818401526020810190506104e5565b50505050905090810190601f16801561052d5780820380516001836020036101000a031916815260200191505b5094505050505060405180910390f35b610545610a26565b600080610550610a26565b6000806001600088815260200190815260200160002090506000816001015411151561057b57600080fd5b806000018054600181600116156101000203166002900480601f0160208091040260200160405190810160405280929190818152602001828054600181600116156101000203166002900480156106135780601f106105e857610100808354040283529160200191610613565b820191906000526020600020905b8154815290600101906020018083116105f657829003601f168201915b505050505095508060010154945080600201549350806004018054600181600116156101000203166002900480601f0160208091040260200160405190810160405280929190818152602001828054600181600116156101000203166002900480156106c05780601f10610695576101008083540402835291602001916106c0565b820191906000526020600020905b8154815290600101906020018083116106a357829003601f168201915b50505050509250806005018054905091505091939590929450565b60006001600084815260200190815260200160002090506000816001015411151561070557600080fd5b4281600201541015151561071857600080fd5b80600501805480600101828161072e9190610a3a565b916000526020600020906003020160006060604051908101604052803373ffffffffffffffffffffffffffffffffffffffff16815260200186815260200142815250909190915060008201518160000160006101000a81548173ffffffffffffffffffffffffffffffffffffffff021916908373ffffffffffffffffffffffffffffffffffffffff16021790555060208201518160010190805190602001906107d8929190610a6c565b5060408201518160020155505050505050565b83600160008581526020019081526020016000206000019080519060200190610815929190610aec565b5082600160008581526020019081526020016000206001018190555081600160008581526020019081526020016000206002018190555080600160008581526020019081526020016000206004019080519060200190610876929190610aec565b5050505050565b6000809054906101000a900473ffffffffffffffffffffffffffffffffffffffff1681565b6001602052806000526040600020600091509050806000019080600101549080600201549080600301549080600401905085565b60006108e0610a26565b60008060006001600088815260200190815260200160002091506000826001015411151561090d57600080fd5b858260050180549050118015610924575060008610155b151561092f57600080fd5b816005018681548110151561094057fe5b906000526020600020906003020190508060000160009054906101000a900473ffffffffffffffffffffffffffffffffffffffff169450806001018054600181600116156101000203166002900480601f016020809104026020016040519081016040528092919081815260200182805460018160011615610100020316600290048015610a0f5780601f106109e457610100808354040283529160200191610a0f565b820191906000526020600020905b8154815290600101906020018083116109f257829003601f168201915b505050505093508060020154925050509250925092565b602060405190810160405280600081525090565b815481835581811511610a6757600302816003028360005260206000209182019101610a669190610b6c565b5b505050565b828054600181600116156101000203166002900490600052602060002090601f016020900481019282601f10610aad57805160ff1916838001178555610adb565b82800160010185558215610adb579182015b82811115610ada578251825591602001919060010190610abf565b5b509050610ae89190610bca565b5090565b828054600181600116156101000203166002900490600052602060002090601f016020900481019282601f10610b2d57805160ff1916838001178555610b5b565b82800160010185558215610b5b579182015b82811115610b5a578251825591602001919060010190610b3f565b5b509050610b689190610bca565b5090565b610bc791905b80821115610bc357600080820160006101000a81549073ffffffffffffffffffffffffffffffffffffffff0219169055600182016000610bb29190610bef565b600282016000905550600301610b72565b5090565b90565b610bec91905b80821115610be8576000816000905550600101610bd0565b5090565b90565b50805460018160011615610100020316600290046000825580601f10610c155750610c34565b601f016020900490600052602060002090810190610c339190610bca565b5b505600a165627a7a72305820c71cd6fa530673100e4a0c56aa32422ba27141daba475b506fcc071cdf599ffd0029",
  "source": "pragma solidity ^0.4.17;\n\n/*\n Usage from `truffle console`\n var tc = TopCoderChallenges.at(TopCoderChallenges.address)\n tc.addChallenge(\"Expired challenge\", 1, 2)\n tc.addChallenge(\"Some challenge\", 2, 1612504683, 'MIGJAoGBAM3CosR73CBNcJsLv5E90NsFt6qN1uziQ484gbOoule8leXHFbyIzPQRozgEpSpi\\nwhr6d2/c0CfZHEJ3m5tV0klxfjfM7oqjRMURnH/rmBjcETQ7qzIISZQ/iptJ3p7Gi78X5ZMh\\nLNtDkUFU9WaGdiEb+SnC39wjErmJSfmGb7i1AgMBAAE=');\n\n tc.getChallenge(2)\n tc.addSubmission(2, \"<encrypted json>\")\n tc.getSubmission(2, 0)\n*/\n\ncontract TopCoderChallenges {\n  struct Submission {\n    address sender;\n    string data;\n    uint timestamp;\n  }\n\n  struct Challenge {\n    string title;\n    uint id;\n    uint deadline;\n    uint submissionCount;\n    string publicKey;\n    Submission[] submissions;\n  }\n\n  address public owner;\n\n  mapping(uint => Challenge) public challenges;\n\n  modifier restricted() {\n    if (msg.sender == owner) _;\n  }\n\n  function TopCoderChallenges() public {\n    owner = msg.sender;\n  }\n\n  // add or update a challenge\n  // owner only\n  function addChallenge(string title, uint id, uint deadline, string publicKey) public {\n    challenges[id].title = title;\n    challenges[id].id = id;\n    challenges[id].deadline = deadline;\n    challenges[id].publicKey = publicKey;\n  }\n\n  // get challenge details by id\n  function getChallenge(uint challengeId) public view returns (\n    string title,\n    uint id,\n    uint deadline,\n    string publicKey,\n    uint submissionCount\n  ) {\n    Challenge storage challenge = challenges[challengeId];\n    require(challenge.id > 0);\n    title = challenge.title;\n    id = challenge.id;\n    deadline = challenge.deadline;\n    publicKey = challenge.publicKey;\n    submissionCount = challenge.submissions.length;\n  }\n\n  // add a submission and check for deadline\n  function addSubmission(uint challengeId, string data) public {\n    Challenge storage challenge = challenges[challengeId];\n    require(challenge.id > 0);\n    require(challenge.deadline >= now);\n    challenge.submissions.push(Submission(msg.sender, data, now));\n  }\n\n  // get a submission from the challenge\n  function getSubmission(uint challengeId, uint num) public view returns (\n    address sender,\n    string data,\n    uint timestamp\n  ) {\n    Challenge storage challenge = challenges[challengeId];\n    require(challenge.id > 0);\n    require(challenge.submissions.length > num && num >= 0);\n    Submission storage submission = challenge.submissions[num];\n    sender = submission.sender;\n    data = submission.data;\n    timestamp = submission.timestamp;\n  }\n}\n",
  "sourcePath": "/Users/sky/work/uport/uport-app/contracts/TopCoderChallenges.sol",
  "compiler": {
    "name": "solc",
    "version": "0.4.18+commit.9cf6e910.Emscripten.clang"
  },
  "schemaVersion": "1.0.1",
  "updatedAt": "2017-12-11T11:58:40.762Z"
}